{
  "contractName": "Faucet",
  "abi": [
    {
      "inputs": [],
      "name": "numOfFunders",
      "outputs": [
        {
          "internalType": "uint256",
          "name": "",
          "type": "uint256"
        }
      ],
      "stateMutability": "view",
      "type": "function"
    },
    {
      "inputs": [],
      "name": "owner",
      "outputs": [
        {
          "internalType": "address",
          "name": "",
          "type": "address"
        }
      ],
      "stateMutability": "view",
      "type": "function"
    },
    {
      "stateMutability": "payable",
      "type": "receive"
    },
    {
      "inputs": [],
      "name": "emitLog",
      "outputs": [
        {
          "internalType": "bytes32",
          "name": "",
          "type": "bytes32"
        }
      ],
      "stateMutability": "pure",
      "type": "function"
    },
    {
      "inputs": [],
      "name": "addFunds",
      "outputs": [],
      "stateMutability": "payable",
      "type": "function"
    },
    {
      "inputs": [
        {
          "internalType": "uint256",
          "name": "withdrawAmount",
          "type": "uint256"
        }
      ],
      "name": "withdraw",
      "outputs": [],
      "stateMutability": "nonpayable",
      "type": "function"
    },
    {
      "inputs": [],
      "name": "getAllFunders",
      "outputs": [
        {
          "internalType": "address[]",
          "name": "",
          "type": "address[]"
        }
      ],
      "stateMutability": "view",
      "type": "function"
    },
    {
      "inputs": [
        {
          "internalType": "uint256",
          "name": "index",
          "type": "uint256"
        }
      ],
      "name": "getFunderAtIndex",
      "outputs": [
        {
          "internalType": "address",
          "name": "",
          "type": "address"
        }
      ],
      "stateMutability": "view",
      "type": "function"
    }
  ],
  "bytecode": "0x608060405234801561001057600080fd5b50336000806101000a81548173ffffffffffffffffffffffffffffffffffffffff021916908373ffffffffffffffffffffffffffffffffffffffff160217905550610872806100606000396000f3fe6080604052600436106100745760003560e01c8063a26759cb1161004e578063a26759cb146100ff578063af7f2c9b14610109578063c218deca14610134578063f42c13bf146101715761007b565b80632e1a7d4d146100805780636fbbb55d146100a95780638da5cb5b146100d45761007b565b3661007b57005b600080fd5b34801561008c57600080fd5b506100a760048036038101906100a2919061053d565b61019c565b005b3480156100b557600080fd5b506100be610233565b6040516100cb9190610656565b60405180910390f35b3480156100e057600080fd5b506100e9610379565b6040516100f6919061063b565b60405180910390f35b61010761039d565b005b34801561011557600080fd5b5061011e6104bd565b60405161012b91906106b3565b60405180910390f35b34801561014057600080fd5b5061015b6004803603810190610156919061053d565b6104c3565b604051610168919061063b565b60405180910390f35b34801561017d57600080fd5b50610186610500565b6040516101939190610678565b60405180910390f35b8067016345785d8a00008111156101e8576040517f08c379a00000000000000000000000000000000000000000000000000000000081526004016101df90610693565b60405180910390fd5b3373ffffffffffffffffffffffffffffffffffffffff166108fc839081150290604051600060405180830381858888f1935050505015801561022e573d6000803e3d6000fd5b505050565b6060600060015467ffffffffffffffff811115610279577f4e487b7100000000000000000000000000000000000000000000000000000000600052604160045260246000fd5b6040519080825280602002602001820160405280156102a75781602001602082028036833780820191505090505b50905060005b600154811015610371576003600082815260200190815260200160002060009054906101000a900473ffffffffffffffffffffffffffffffffffffffff16828281518110610324577f4e487b7100000000000000000000000000000000000000000000000000000000600052603260045260246000fd5b602002602001019073ffffffffffffffffffffffffffffffffffffffff16908173ffffffffffffffffffffffffffffffffffffffff168152505080806103699061075e565b9150506102ad565b508091505090565b60008054906101000a900473ffffffffffffffffffffffffffffffffffffffff1681565b6000339050600260008273ffffffffffffffffffffffffffffffffffffffff1673ffffffffffffffffffffffffffffffffffffffff16815260200190815260200160002060009054906101000a900460ff166104ba576000600160008154809291906104089061075e565b9190505590506001600260008473ffffffffffffffffffffffffffffffffffffffff1673ffffffffffffffffffffffffffffffffffffffff16815260200190815260200160002060006101000a81548160ff021916908315150217905550816003600083815260200190815260200160002060006101000a81548173ffffffffffffffffffffffffffffffffffffffff021916908373ffffffffffffffffffffffffffffffffffffffff160217905550505b50565b60015481565b60006003600083815260200190815260200160002060009054906101000a900473ffffffffffffffffffffffffffffffffffffffff169050919050565b60007f48656c6c6f20576f726c64000000000000000000000000000000000000000000905090565b60008135905061053781610825565b92915050565b60006020828403121561054f57600080fd5b600061055d84828501610528565b91505092915050565b6000610572838361057e565b60208301905092915050565b61058781610718565b82525050565b61059681610718565b82525050565b60006105a7826106de565b6105b181856106f6565b93506105bc836106ce565b8060005b838110156105ed5781516105d48882610566565b97506105df836106e9565b9250506001810190506105c0565b5085935050505092915050565b6106038161072a565b82525050565b6000610616602483610707565b9150610621826107d6565b604082019050919050565b61063581610754565b82525050565b6000602082019050610650600083018461058d565b92915050565b60006020820190508181036000830152610670818461059c565b905092915050565b600060208201905061068d60008301846105fa565b92915050565b600060208201905081810360008301526106ac81610609565b9050919050565b60006020820190506106c8600083018461062c565b92915050565b6000819050602082019050919050565b600081519050919050565b6000602082019050919050565b600082825260208201905092915050565b600082825260208201905092915050565b600061072382610734565b9050919050565b6000819050919050565b600073ffffffffffffffffffffffffffffffffffffffff82169050919050565b6000819050919050565b600061076982610754565b91507fffffffffffffffffffffffffffffffffffffffffffffffffffffffffffffffff82141561079c5761079b6107a7565b5b600182019050919050565b7f4e487b7100000000000000000000000000000000000000000000000000000000600052601160045260246000fd5b7f43616e6e6f74207769746864726177206d6f7265207468616e20302e3120457460008201527f6865722e00000000000000000000000000000000000000000000000000000000602082015250565b61082e81610754565b811461083957600080fd5b5056fea2646970667358221220151671695a21335ff14dd5a8119c0292ea64b8b3d8d2f9cab4369e00c94ea5d464736f6c63430008040033",
  "immutableReferences": {},
  "source": "// SPDX-License-Identifier: MIT\npragma solidity >=0.4.22 <0.9.0;\n\nimport \"./Owned.sol\";\nimport \"./Logger.sol\";\nimport \"./IFaucet.sol\";\n\ncontract Faucet is Owned, Logger, IFaucet {\n  uint public numOfFunders;\n\n  mapping(address => bool) private funders;\n  mapping(uint => address) private lutFunders;\n\n  modifier limitWithdraw(uint withdrawAmount) {\n    require(\n      withdrawAmount <= 100000000000000000, \n      \"Cannot withdraw more than 0.1 Ether.\"\n    );\n    _;\n  }\n\n  receive() external payable {}\n\n  function emitLog() public override pure returns(bytes32) {\n    return \"Hello World\";\n  }\n\n  function addFunds() override external payable{\n    address funder = msg.sender;\n\n    if (!funders[funder]) {\n      uint index = numOfFunders++;\n      funders[funder] = true;\n      lutFunders[index] = funder;\n    }\n  }\n\n  function withdraw(uint withdrawAmount) override external limitWithdraw(withdrawAmount) {\n    payable(msg.sender).transfer(withdrawAmount);\n  }\n\n  function getAllFunders() external view returns (address[] memory) {\n    address[] memory _funders = new address[](numOfFunders);\n\n    for (uint i = 0; i < numOfFunders; i++) {\n      _funders[i] = lutFunders[i];\n    }\n\n    return _funders;\n  }\n\n  function getFunderAtIndex(uint index) external view returns(address) {\n    return lutFunders[index];\n  }\n}\n\n// const instance = await Faucet.deployed()\n// instance.addFunds({from: accounts[0], value: \"2000000000000000000\"})",
  "sourcePath": "/Users/zeztron/Desktop/projects/react-projects/blockchain/faucet/contracts/FaucetContract.sol",
  "compiler": {
    "name": "solc",
    "version": "0.8.4+commit.c7e474f2.Emscripten.clang"
  },
  "schemaVersion": "3.4.3",
  "updatedAt": "2021-12-09T15:01:50.149Z",
  "devdoc": {
    "kind": "dev",
    "methods": {},
    "version": 1
  },
  "userdoc": {
    "kind": "user",
    "methods": {},
    "version": 1
  }
}